:100000000A128A11E62FFF0000308A007F0882075B
:1000100008280A128A11822A0A128A11202A0A1230
:100020008A11282A0A128A11422A0A128A11912C4C
:100030000A128A11422B0A128A11622A0A128A11A2
:100040006C2D0A128A11E92B00308A000408840AF8
:0E00500082070034203410346034C034303461
:100440008316031311141118262A272A232A0800B9
:1004500083160313111511192E2A2F2A2B2A08008F
:1004600064008001840A0406031900340406312A5A
:100470000D341934163410340134043400340A3481
:100480001334073470088312031393008C118C1DEE
:100490004A2A4B2A472A83160313110808007E08AC
:1004A0008A007F0882000A128A114F220A128A11DA
:1004B0008000840A04087D0603190034FF0A03192A
:1004C000FE0A532A831603139115141C682A692AFD
:1004D000652A831203131308F100831603131418FB
:1004E000722A732A6D2A7008031D772A782A7A2ABD
:1004F00091167B2A91121116111A7F2A802A7C2AC2
:1005000071080800831203139416941514119410A3
:1005100014108030831603139400FF3083120313EA
:10052000A800FF30A900FF30AA00FF30AB0024086C
:10053000AC002508AD002608AE002708AF00023049
:100540000310AC0DAD0DAE0DAF0DFF3E031DA02A87
:100550002F08F3002E08F2002D08F1002C08F000FF
:100560002308F7002208F6002108F5002008F4000F
:100570000A128A11DE220A128A11700883120313EA
:10058000A80771080318710FC62AC72AA90772089D
:100590000318720FCC2ACD2AAA0773080318730A0E
:1005A000AB072B08A3002A08A2002908A1002808ED
:1005B000A000200883160313930008000030FC00FD
:1005C0000030FB000030FA000030F90073087204BC
:1005D000710470040319ED2AEE2A392B0130FD0055
:1005E000FC2A0130F8000310F00DF10DF20DF30DAF
:1005F000F80BF32A0130FD07F31FFF2A002BF12A25
:100600000130F8000310F90DFA0DFB0DFC0DF80B8D
:10061000022B73087702031D172B72087602031D45
:10062000172B71087502031D172B70087402031C29
:100630001A2B1B2B2A2B7008F4027108031C710F54
:10064000F5027208031C720FF6027308031C730F85
:10065000F702791401300310F30CF20CF10CF00CDA
:10066000FF3E031D2B2B0130FD02031D382B392BC0
:10067000002B7C08F3007B08F2007A08F10079086F
:10068000F0000800710884008317721C83130008AF
:10069000F400840A0008F5007408013EF6007508AD
:1006A0000318013E003EF700760884008317771C8C
:1006B000831300080A128A1103200A128A11710892
:1006C000023EF40072080318013E003EF500740873
:1006D00084008317751C83130008F6007607C03862
:1006E000F000710884008317721C83130008F70060
:1006F000840A0008F8007708033EF9007808031818
:10070000013E003EFA007908840083177A1C8313A7
:1007100000080A128A1103200A128A117308F000D5
:10072000710884008317721C83130008F400840A84
:100730000008F5007408033EF60075080318013E32
:10074000003EF700760884008317771C83130008A7
:100750000A128A1103200A128A11F001710884001A
:100760008317721C83130008F400840A0008F50044
:100770007408033EF60075080318013E003EF700BA
:10078000760884008317771C831300080A128A11E5
:1007900003200A128A11710884008317721C8313C4
:1007A0000008F400840A0008F5007408053EF6000D
:1007B00075080318013E003EF70076088400831791
:1007C000771C831300080A128A1103200A128A1167
:1007D0000800710884008317721C83130008F50059
:1007E000840A0008F6007508013EF7007608031831
:1007F000013E003EF800770884008317781C8313BD
:1008000000080A128A1103200A128A117108023E96
:10081000F50072080318013E003EF60075088400DA
:100820008317761C83130008F7007707C038F000A1
:10083000710884008317721C83130008F800840A6F
:100840000008F9007808033EFA0079080318013E11
:10085000003EFB007A08840083177B1C831300088A
:100860000A128A1103200A128A117408F000710812
:1008700084008317721C83130008F500840A0008A3
:10088000F6007508033EF70076080318013E003EA7
:10089000F800770884008317781C831300080A1275
:1008A0008A1103200A128A117308F000710884006B
:1008B0008317721C83130008F500840A0008F600F1
:1008C0007508033EF70076080318013E003EF80065
:1008D000770884008317781C831300080A128A1192
:1008E00003200A128A11710884008317721C831373
:1008F0000008F500840A0008F6007508053EF700B8
:1009000076080318013E003EF8007708840083173C
:10091000781C831300080A128A1103200A128A1114
:100920000800710884008317721C83130008F50007
:10093000840A0008F6007508013EF70076080318DF
:10094000013E003EF800770884008317781C83136B
:1009500000080A128A1103200A128A117108023E45
:10096000F50072080318013E003EF6007508840089
:100970008317761C83130008F7007707C038F00050
:10098000710884008317721C83130008F800840A1E
:100990000008F9007808033EFA0079080318013EC0
:1009A000003EFB007A08840083177B1C8313000839
:1009B0000A128A1103200A128A116030F0007108AD
:1009C00084008317721C83130008F500840A000852
:1009D000F6007508033EF70076080318013E003E56
:1009E000F800770884008317781C831300080A1224
:1009F0008A1103200A128A117408F6007308F500A0
:100A000004300310F60CF50CFF3E031D012D750894
:100A1000F000710884008317721C83130008F7002C
:100A2000840A0008F8007708033EF90078080318E4
:100A3000013E003EFA007908840083177A1C831374
:100A400000080A128A1103200A128A117308F5009D
:100A500003300310F50DFF3E031D292D0310750D06
:100A6000F000710884008317721C83130008F600DD
:100A7000840A0008F7007608033EF8007708031898
:100A8000013E003EF900780884008317791C831327
:100A900000080A128A1103200A128A1171088400C0
:100AA0008317721C83130008F500840A0008F600FF
:100AB0007508053EF70076080318013E003EF80071
:100AC000770884008317781C831300080A128A11A0
:100AD00003200A128A110800720884008317731C0D
:100AE00083130008F400840A0008F5007408013E2E
:100AF000F60075080318013E003EF70076088400F2
:100B00008317771C831300080A128A1103200A1224
:100B10008A117208023EF40073080318013E003E79
:100B2000F500740884008317751C83130008F60011
:100B30007607C138F000720884008317731C831392
:100B40000008F700840A0008F8007708033EF9005F
:100B500078080318013E003EFA00790884008317E4
:100B60007A1C831300080A128A1103200A128A11C0
:100B7000FB0104307B06031DBE2DBF2DE52DF001CA
:100B8000720884008317731C83130008F400840A1E
:100B90000008F5007408043EF60075080318013ECD
:100BA000003EF700760884008317771C8313000843
:100BB0000A128A1103200A128A11FF007B08393EAB
:100BC00084007F08831380000B2EF001F00A720866
:100BD00084008317731C83130008F400840A000840
:100BE000F5007408043EF60075080318013E003E47
:100BF000F700760884008317771C831300080A1215
:100C00008A1103200A128A11FF007B08393E8400F2
:100C10007F08831380000130FB0705307B02031C33
:100C2000122E132EB92D720884008317731C8313A0
:100C30000008F400840A0008F5007408053EF60078
:100C400075080318013E003EF700760884008317FC
:100C5000771C831300080A128A1103200A128A11D2
:100C600083120313B91F352E362E462E7208033E0B
:100C7000F40073080318013E003EF5007408840078
:100C80008317751C831301308000542E7208033EB5
:100C9000F40073080318013E003EF5007408840058
:100CA0008317751C831380013B08F4000430031084
:100CB000F40CFF3E031D572E3A08F500F601F50E21
:100CC000F60EF030F60575080F39F604F030F5052C
:100CD00074087507F7000030031801307607F80034
:100CE0007208063EF90073080318013E003EFA0040
:100CF0007908840083177A1C831377088000840A9C
:100D0000780880000F303C05F4007208043EF500BE
:100D100073080318013E003EF6007508840083172F
:100D2000761C83133D088000840A74088000080044
:100D30008316031386018312031386010130A30077
:100D40003130A2002D30A1000030A0000030A700FB
:100D50000130A6008630A500A030A40052080A1277
:100D60008A1103200A128A11523083120313C6001B
:100D70000030C7005230BE000030BF00C801013053
:100D8000C0004630F1000030F2000F30F3000030B8
:100D9000F4004E080A128A1103200A128A113E300A
:100DA000F1000030F200F030F3000030F400831264
:100DB00003134E080A128A1103200A128A11023004
:100DC00083120313B6004530B500A930B400B40B4C
:100DD000E72EB50BE72EB60BE72E4630F2000030BB
:100DE000F3008312031350080A128A1103200A1217
:100DF0008A11831203134903031DFF2E002FDF2ED8
:100E0000023083120313B6004530B500A930B40098
:100E1000B40B082FB50B082FB60B082F3E30F2008D
:100E20000030F3008312031350080A128A110320C2
:100E30000A128A11831203134103031D202F212F4D
:100E4000002F4C088600993083120313B60031300E
:100E5000B500A130B400B40B2B2FB50B2B2FB60B64
:100E60002B2F322F831203134408860099308312EC
:100E70000313B6003130B500A130B400B40B3E2FDF
:100E8000B50B3E2FB60B3E2F452F831203134A0896
:100E90008600993083120313B6003130B500A130BB
:100EA000B400B40B512FB50B512FB60B512F582F47
:100EB0008312031342088600993083120313B6008D
:100EC0003130B500A130B400B40B642FB50B642FE2
:100ED000B60B642F6B2F831203138601B701B80181
:100EE0003E30F1000030F2003808F4003708F3001B
:100EF0004F080A128A1103200A128A114630F100A3
:100F00000030F200831203133808F4003708F300AE
:100F10004F080A128A1103200A128A1182308312A2
:100F20000313B500DD30B400B40B942FB50B942F30
:100F3000643083120313B7070318B80A0030B807E8
:100F40000F303802AA3003193702031CA82FA92F2B
:100F5000702F4630F1000030F2003030F3005108BD
:100F60000A128A1103200A128A1183120313B7018D
:100F7000B8013E30F1000030F2003808F4003708C4
:100F8000F3004F080A128A1103200A128A118230D4
:100F900083120313B500DD30B400B40BCD2FB50BB5
:100FA000CD2F903083120313B7070318B80A01300E
:100FB000B8070F303802AA3003193702031CE12F9B
:100FC000E22FB92F6E2F0A128A110028831358308E
:100FD000FD000230FE003830FF004E3084000A125F
:100FE0008A1153220A128A11393084004E300A12B3
:100FF0008A1130220A128A1183010A128A11982E4C
:02400E00F23F7F
:00000001FF
